:020000040800F2
:10000000303201205D0200081F100008190F00089F
:100010001D100008E5030008B312000800000000EE
:10002000000000000000000000000000C501000802
:100030003504000800000000090200082110000833
:1000400077020008770200087702000877020008AC
:10005000770200087702000877020008770200089C
:10006000770200087702000877020008770200088C
:10007000770200087702000877020008770200087C
:10008000770200087702000877020008770200086C
:10009000770200087702000877020008770200085C
:1000A000770200087702000877020008770200084C
:1000B000770200087702000877020008770200083C
:1000C000770200087702000877020008770200082C
:1000D000770200087702000877020008770200081C
:1000E000770200087702000877020008770200080C
:1000F00077020008770200087702000877020008FC
:1001000077020008770200087702000877020008EB
:1001100077020008770200087702000877020008DB
:1001200077020008770200087702000877020008CB
:1001300077020008770200087702000877020008BB
:1001400077020008770200087702000877020008AB
:10015000770200087702000877020008770200089B
:10016000770200087702000877020008770200088B
:1001700077020008770200087702000800000000FC
:10018000770200087702000877020008770200086B
:10019000770200087702000877020008770200085B
:1001A000770200087702000877020008DFF810D015
:1001B00000F0F0F800480047E5140008AFF30080B5
:1001C00030320120224B19680868B0E8F00F80F344
:1001D0000988BFF36F8F4FF0000080F311884EF055
:1001E0000D0E70470000000006480068006880F3AC
:1001F000088862B661B6BFF34F8FBFF36F8F00DF21
:1002000000BF00BF08ED00E0EFF30980BFF36F8F80
:100210000F4B1A6820E9F00F106008B54FF050003E
:1002200080F31188BFF34F8FBFF36F8F01F0FAFE99
:100230004FF0000080F31188BDE808401968086895
:10024000B0E8F00F80F30988BFF36F8F704700BFED
:1002500034000020EFF30580704700000648804717
:1002600006480047FEE7FEE7FEE7FEE7FEE7FEE79B
:10027000FEE7FEE7FEE7FEE7D5100008AD01000847
:100280002DE9F05F0546002092469B4688460646CB
:10029000814640241BE0284641464746224600F05E
:1002A00069F853465A46C01A914110D31146184670
:1002B000224600F050F82D1A67EB01084F462246FF
:1002C0000120002100F047F817EB00094E41201EE5
:1002D000A4F10104DFDC484631462A464346BDE826
:1002E000F09F40EA01039B0703D009E008C9121FF1
:1002F00008C0042AFAD203E011F8013B00F8013BE0
:10030000521EF9D27047D2B201E000F8012B491E0B
:10031000FBD270470022F6E710B513460A460446A2
:100320001946FFF7F0FF204610BD30B50B460146D9
:1003300000202022012409E021FA02F59D4205D384
:1003400003FA02F5491B04FA02F52844151EA2F12E
:100350000102F1DC30BD202A04DB203A00FA02F170
:10036000002070479140C2F1200320FA03F31943A3
:1003700090407047202A04DB203A21FA02F0002145
:10038000704721FA02F3D040C2F1200291400843A5
:1003900019467047064C074D06E0E06840F001033F
:1003A00094E8070098471034AC42F6D3FFF702FFF9
:1003B0008C280008AC2800081CB500210320CDE9DA
:1003C00000010B46802204A1054802F04BF8BDE86D
:1003D0001C4001F0E7BD00004B65795363616E007E
:1003E00081200008FEE710B504468188006800F00F
:1003F00051F9A179814201D1012000E00020E37987
:1004000000213BB10022012B07D0022B0AD0032B85
:100410000ED10BE060B1012006E040B10220E07196
:10042000217A05E020B90320E07101E000B9E27112
:10043000084610BD704772B6FEE7000070B504466E
:1004400000F032F90546601C02D0044800780444EC
:1004500000F02AF9401BA042FAD370BD0000002032
:100460002DE9F84FDFF8F8A10022012403254FF011
:100470000F090AF1040BAAF1040E00BF0B6804FA7D
:1004800002F63340B34270D10F7907F00307012F12
:1004900001D0022F16D187684FEA420805FA08FCFE
:1004A00027EA0C07D1F80CC00CFA08FC4CEA070C40
:1004B000C0F808C04768B7430E79C6F300169640E7
:1004C0003E4346600E79F643B6070AD0C7684FEA46
:1004D000420C05FA0CF6B7438E6806FA0CF63E435A
:1004E000C6600E7906F00306022E10D1D60800EB86
:1004F0008608D8F8206057074FEAD76C09FA0CF73E
:10050000BE430F6907FA0CF73743C8F82070066836
:100510004FEA420C05FA0CF7BE430F7907F00307C8
:1005200007FA0CF7374307604E6816F4403F1CD0BB
:100530004C4E376847F480473760366822F003072F
:1005400006F480460096484E07EB060CDCF8086877
:1005500097073F0F09FA07F826EA0806DFF80C812B
:10056000404503D14FF0000841E072E0DFF8008120
:10057000404502D14FF0010839E0DFF8F8804045EE
:1005800002D14FF0020832E0DFF8EC80404502D1A2
:100590004FF003082BE0DFF8E480404502D14FF034
:1005A000040824E0DFF8D880404502D14FF0050868
:1005B0001DE0DFF8D080404502D14FF0060816E07C
:1005C000DFF8C480404502D14FF007080FE0DFF8A4
:1005D000BC80404502D14FF0080808E0DFF8B08049
:1005E000404502D14FF0090801E04FF00A0808FA2F
:1005F00007F848EA0608CCF80888DAF80060574699
:10060000D1F804C09E435FEACC2C00D51E433E6067
:10061000DBF800605F46D1F804C09E435FEA8C2C93
:1006200000D51E433E60DEF800607746D1F804C076
:100630009E435FEA8C3C00D51E433E60084F083F56
:100640003E68D1F804C09E435FEACC3C00D51E430F
:100650003E60521C102AFFF411AFBDE8F88F000075
:10066000083C014044380240003001400000024094
:100670000004024000080240000C0240001002404A
:100680000014024000180240001C024000200240FA
:10069000002402400069084000D0012070470AB1E0
:1006A000816170470904FBE70148806870470000DA
:1006B0000000002002488168027811448160704780
:1006C000000000200B4810B5016841F40071016082
:1006D000016841F480610160016841F4807101604A
:1006E000032000F061F80F2000F006F800F024F875
:1006F000002010BD003C024070B50D4D04464FF483
:100700007A712878B1FBF0F00A490968B1FBF0F082
:1007100000F036FB48B9102C07D200222146501EAB
:1007200000F022F800206C6070BD012070BD000058
:10073000000000200C0000200A4808B5016841F4C0
:1007400080410160006800F4804000900548001F6F
:10075000016841F080510160006800F08050009015
:1007600008BD000044380240F0B40E4B1B680C4634
:10077000C3F30223C3F10705042D00D90425191D75
:10078000072901D2002300E0DB1E012606FA05F14D
:10079000491E214099409E40761E16403143F0BCD0
:1007A00000F098BD0CED00E0064900F00702086873
:1007B0004FF6FF03184040EA0220034A1043086046
:1007C000704700000CED00E00000FA052DE9F84349
:1007D0001748016841F0805101600068154F00F032
:1007E0008050012600903E64FFF75EFF05464FF4FF
:1007F0007A78114C05E000BFFFF756FF401B4045DB
:100800000DD86068C003F7D57E64FFF74DFF05463D
:10081000464607E0FFF748FF401BB04202D90320DD
:10082000BDE8F88360688003F4D50020F8E7000095
:100830004038024000000E42007000402DE9F047B1
:100840000E46050065D0DFF81481D8F80000F7B235
:1008500000F00F00B04207D288F80070D8F800000E
:1008600000F00F00B04254D128683D4C810712D5EA
:10087000400703D5206840F4E05020602878000746
:1008800003D5206840F4604020602068A96820F00B
:10089000F000084320602878C0072DD030496868F0
:1008A0000839012812D0022813D0032811D0096872
:1008B000890700292DDA216821F003010143216015
:1008C000FFF7F2FE814641F2883A0EE0096889039B
:1008D000EFE709688901ECE7FFF7E6FEA0EB090105
:1008E000514502D90320BDE8F0872068696800F00F
:1008F0000C00B0EB810FEFD1D8F80010404601F0AA
:100900000F01B14207D90770006800F00F00B04234
:1009100001D00120E7E72878400705D52068E9687D
:1009200020F4E050084320602878000706D52068AE
:10093000296920F4604040EAC100206000F038F8E6
:100940002168084AC1F30311515CC8400649086098
:1009500006480068FFF7D0FE0020C4E7003C0240D4
:1009600008380240742800080C0000200400002011
:100970000448054900680968044AC1F38221515CB2
:10098000C84070470C000020083802408428000846
:100990000448054900680968044AC1F34231515CC2
:1009A000C84070470C000020083802408428000826
:1009B000154810B5006810F00C02144813D0144903
:1009C000042A0FD0082A0ED10F4C241F2268236856
:1009D00002F03F025B0207D52068C0F38810A0FB3D
:1009E000010106E0084610BD2168C1F38811A1FB92
:1009F00000010023FFF744FC2168C1F30141491CB9
:100A00004900B0FBF1F010BD083802400024F400AA
:100A100040787D012DE9F84F04006ED02078DFF892
:100A20004C93C007A9F104054AD009F104000168FC
:100A3000C1F38101012908D00068C0F381000228B8
:100A40000AD1D9F80000400206D52868800337D5BE
:100A500060680028E1D033E06068B0F5803F10D0D6
:100A6000B0F5A02F286810D020F4803028602868C6
:100A700020F4802028606068A8B1FFF715FE0646C4
:100A80000DE0286840F48030F4E740F480202860CE
:100A9000F7E700BFFFF708FE801B642873D82868BB
:100AA0008003F7D50CE0FFF7FFFD064605E000BF29
:100AB000FFF7FAFD801B6428F0D828688003F7D47C
:100AC0002078DFF8AC8280074FF0000A3ED5A748B7
:100AD000001D016811F00C0F08D00068C0F3810000
:100AE00002280BD1D9F80000400207D428688007FB
:100AF00016D5E068012800D112E033E1E068B8B112
:100B00000120C8F80000FFF7CFFD064605E000BF52
:100B1000FFF7CAFD801B0228C0D828688007F7D5D8
:100B20002868216920F0F80040EAC10028600DE043
:100B3000C8F800A0FFF7B8FD064604E0FFF7B4FDD3
:100B4000801B02281FD828688007F7D42078000768
:100B500022D5864F87486169703771B101210160E4
:100B6000FFF7A2FD064604E0FFF79EFD801B02286A
:100B700009D838688007F7D50EE0C0F800A0FFF765
:100B800093FD064605E082E0FFF78EFD801B0228FC
:100B90007DD838688007F7D42078400768D5DFF81B
:100BA000CCB100270BF13C0BDBF80000C0000BD4EC
:100BB000DBF8001041F08051CBF80010DBF80000AA
:100BC000012700F0805000906B4E3068C00510D4B3
:100BD000306840F480703060FFF766FD009005E0FB
:100BE000FFF762FD0099401A022850D83068C0050E
:100BF000F6D55E4EA0686C3601280FD00528306807
:100C000010D020F001003060306820F00400306027
:100C1000A068B8B1FFF748FD00900FE0306840F0E1
:100C20000100F4E740F004003060F7E7FFF73CFD17
:100C30000099411A41F28830814266D830688007B5
:100C4000F4D50EE0FFF730FD009007E0FFF72CFD34
:100C50000099411A41F28830814256D830688007A5
:100C6000F4D42FB1DBF8001021F08051CBF8001044
:100C7000A069C8B33D49091D0968C1F38101022972
:100C80004AD00228504607D0C8F8600000E03CE097
:100C9000FFF70AFD04463BE04746C8F86000FFF74F
:100CA00003FD064605E000BFFFF7FEFC801B02289F
:100CB0002BD828688001F7D4D4E907010843A16A3A
:100CC0002E4A490802EB0141626A41EA8211084357
:100CD00094F82C1040EA0161C9F800100120386630
:100CE000FFF7E2FC044606E03EE000BFFFF7DCFC55
:100CF000001B022809D828688001F7D534E000BF1E
:100D0000FFF7D2FC001B022802D90320BDE8F88FB0
:100D100028688001F4D427E00128F7D0D9F8000032
:100D2000E26900F4800191421CD1226A00F03F0187
:100D3000914217D147F6C071626A0140B1EB821F40
:100D400010D1A26A4FF0FF3300F4403103EB52029E
:100D5000B1EB024F06D194F82C1000F07060B0EBAC
:100D6000016F01D00120D1E70020CFE70438024015
:100D700000004742800E4742007000400000FFFF25
:100D800010B5401EB0F1807F01D3012010BD4FF09F
:100D9000E02460610F21601700F09CFA0020A06140
:100DA00007202061002010BD70B5040004D094F825
:100DB0004100002510B106E0012070BD84F84050CC
:100DC000204600F023F8242084F841002068C16800
:100DD00021F40051C160204600F0ACF9206801699F
:100DE00021F4904101612068416921F02A014161AB
:100DF0002068C16841F40051C1606564202084F816
:100E0000410084F842006563002070BD10B586B0D3
:100E1000044614216846FFF77DFA14492068884289
:100E200021D113480021026842F0100202600068DC
:100E300000F0100005900E481438026842F00102DC
:100E40000260006800F0010005904FF4C06000905F
:100E50000220CDE901010320039007200490694698
:100E60000448FFF7FDFA06B010BD00000010014075
:100E700044380240000002402DE9F843044690F84F
:100E80004100984616460D46202802D00220BDE8B3
:100E9000F88385B17EB100206064212084F8410090
:100EA000FFF702FCA6848146E684A0682027B0F5FF
:100EB000805F02D003E00120E9E7206910B12E46EF
:100EC00000250EE000260CE08021204600F0B8F955
:100ED000A8B9C6B116F8010B21684860E08C401E25
:100EE000E084E08C4B464FF00002CDF800800028F3
:100EF000EAD14FF04001204600F0A2F940B184F859
:100F000041700320C3E735F8020BC0F30800E3E7A4
:100F100084F841700020BAE7FEE7000070B5074D85
:100F2000002400BF04EB440005EB8000FFF75BFAF0
:100F3000002802D1641C032CF4D370BD10000020E3
:100F400070B586B014216846FFF7E4F92148002403
:100F5000016841F004010160016801F0040105919C
:100F6000016841F080010160016801F08001059194
:100F7000016841F002010160016801F00201059180
:100F8000016841F0010101600068134E00F00100AA
:100F90000590012203213046FFF781FB4FF40050FA
:100FA00001258DE8310069460C48FFF759FA0C20FD
:100FB0008DE8310069460A48FFF752FA0320009095
:100FC000CDE90154694630460394FFF749FA06B06B
:100FD00070BD0000303802400004024000080240AA
:100FE000001C02400C4810B50A4901604FF4E13181
:100FF0004160002181600C22C160C0E9041281615E
:10100000C161FFF7D1FE002803D0BDE81040FFF713
:1010100012BA10BD00100140B4000020FEE7FEE748
:1010200010B501F04DFA012801D001F0A3F8BDE898
:101030001040FFF73FBB000070B592B0302168460A
:10104000FFF768F914210CA8FFF764F91F48002581
:10105000016841F080510160006800F080501190FB
:101060001B48016841F4404101600068022400F41B
:101070004040119001200090000401908001CDE9D2
:1010800006400F260896D820CDE9090404200B90CD
:101090006846FFF7BFFC08B172B6FEE7FFF796FBA4
:1010A00008B172B6FEE74FF4A050CDE90E504FF4F0
:1010B0008050CDE90C64109005210CA8FFF7BEFB11
:1010C000002801D072B6FEE712B070BD4038024071
:1010D000007000400248016841F4700101607047EF
:1010E00088ED00E001680C3151E8002F22F4907285
:1010F00041E80023002BF5D10168143151E8002F9D
:1011000022F0010241E80023002BF5D1016B0129F7
:1011100009D101680C3151E8002F22F0100241E89A
:101120000023002BF5D1202180F84210002101631B
:101130007047000070B5044600680169E26821F458
:101140004051114301612169A068E2690843616966
:10115000114308432168CA6849F20C639A43024369
:10116000CA6020684169A26921F44071114341615C
:1011700031492068884202D03049884202D1FFF7C5
:1011800007FC01E0FFF7F4FBE26900231921642565
:101190003226B2F5004F626828D0A0FB0101930F00
:1011A0009200FFF76DF80146B0FBF5F06FF0180202
:1011B000504301EB800006EB0010B0FBF5F000F0AF
:1011C000F002B1FBF5F002EB0012B1FBF5F06FF0AD
:1011D0001803584301EB800006EB0010B0FBF5F05C
:1011E00000F00F0021681044886070BDA0FB010171
:1011F00092185B41FFF744F80146B0FBF5F002019D
:10120000B1FBF5F06FF01803584301EB800006EBDB
:10121000C000B0FBF5F000F0F80002EB4002B1FBBB
:10122000F5F0584301EB800006EBC000B0FBF5F091
:1012300000F00700D6E70000001001400014014054
:101240002DE9F843984617460D460446089E24E0CB
:10125000701C22D0FFF728FAA0EB0800B0421AD881
:10126000CEB12068C168490717D5802D15D0402D13
:1012700013D00168C94309070FD4016800254068ED
:1012800000902046FFF72EFF0820606484F840504D
:101290000120BDE8F8830320FBE72068006835EAF9
:1012A000000004D00020B842D2D00020F1E7012095
:1012B000F9E7FEE70FB4054B10B503A9044A0298FD
:1012C00000F028F810BC5DF814FB0000CD140008F5
:1012D000B00000200907090E002804DB00F1E0201F
:1012E00080F80014704700F00F0000F1E02080F853
:1012F000141D704702E008C8121F08C1002AFAD165
:1013000070477047002001E001C1121F002AFBD185
:10131000704700002DE9FF4F8BB09A460F460546F7
:10132000002606E025280BD052460D9990476D1CEB
:10133000761C28780028F5D10FB03046BDE8F08F34
:101340000024A0460122604900E0044315F8013F53
:10135000203B02FA03F00842F7D128782E2817D153
:1013600015F8010F44F004042A280ED06FF02F0264
:101370002878A0F1300109290AD808EB880102EB8E
:10138000410100EB01086D1CF2E757F8048B6D1C5E
:10139000287869283ED006DC0028CDD063280BD001
:1013A000642804D136E0732810D075284BD05246FB
:1013B0000D999047761C85E017F8040B8DF8000016
:1013C00000208DF80100E946012003E057F8049B56
:1013D0004FF0FF3061074FF0000401D40AE0641CB5
:1013E00044450DDA8442FADB19F804100029F6D1DD
:1013F00006E0641C8442FCDB19F804100029F8D1D3
:10140000264404E019F8010B52460D999047641EDA
:10141000F8D257E001CF4FF00A0B002802DA404221
:101420002D2102E0210504D52B218DF82410012166
:1014300003E0E10705D02021F7E70DF1200908912D
:101440000CE00021F9E701CF4FF00A0BF9E759460C
:10145000FEF76BFF01F1300209F8012D0028F6D1EB
:10146000ADEB090000F1200B600701D44FF001083B
:10147000D84502DDA8EB0B0000E0002080460024E8
:1014800006E009A85246005D0D999047641C761C41
:1014900008988442F5DB04E0302052460D999047CD
:1014A000761CB8F10001A8F10108F5DC05E019F897
:1014B000010B52460D999047761CBBF10001ABF130
:1014C000010BF4DC6D1C34E70928010013B54FF063
:1014D000FF33012269460248FFF7CEFC00981CBD8D
:1014E000B4000020FFF7EEF8FFF7A6FDFFF728FD98
:1014F000FFF778FDFEF760FF4FF47A7403A0FFF763
:10150000D9FE2046FEF79AFFF8E700003132333467
:101510003536373839300D0A000000002DE9F0412A
:101520001E4C0F460546E6682068001D00F0CAFB09
:1015300038B9206890F82C10012088402169814337
:101540002161681C15D1A7B11549226848689060CF
:1015500023688268DA6022688368121D5A602268F4
:10156000121D8260206841610868401C0860BDE867
:10157000F08120683544B5424560216805D2E06BB2
:10158000BDE8F041091D00F0BEBBA06B091D00F0D5
:10159000BAFBA06A8542EAD2A562E8E734000020DF
:1015A000F00100202DE9F041054600F0C5FB364C66
:1015B000A068401CA0602068344F10B1606940B33F
:1015C0002DE02560A068012829D1002606EB8600C1
:1015D00007EB800000F089FB761C052EF6D32B4824
:1015E000643000F082FB2948783000F07EFB274809
:1015F0008C3000F07AFB2548A03000F076FB2348C1
:10160000B43000F072FB21486430A0631430E06312
:1016100005E02068E96AC06A884200D82560606AEF
:10162000401C60622864E96A0120226988401043F6
:10163000206101EB810007EB80004068A8608168B1
:10164000E9608268291D51608160E86A00EB8000D2
:1016500007EB8001696157F82010491C47F82010FA
:1016600000F08AFB606900280CD02068E96AC06A33
:10167000884207D206494FF080500860BFF34F8F71
:10168000BFF36F8FBDE8F081340000203C010020E3
:1016900004ED00E010B500F04FFB0E4C2068A0B93F
:1016A0000D4800F022FB0C48143000F01EFB0A48E5
:1016B000E0601430206100220C210A2000F070FD4F
:1016C000206010B105A100F0AFFBBDE8104000F0B4
:1016D00053BB00007400002004020020546D7251BE
:1016E0000000000030B4026C0B46002A0BD0C16829
:1016F0001144C1608468A14201D30168C16030BC5B
:101700001846FEF7EEBD30BC704710B50446006BBE
:1017100000F046FB2046BDE8104000F041BB000051
:101720000E484FF49631420706D0C01D0B4920F0F9
:101730000700411AC1F59631094A00230144C2E964
:1017400000030839143A21F0070111604B600B6067
:101750000B1AC0E900139360536070472C020020FD
:101760009C000020144E154CA6F1A0074FF08058A5
:10177000DFF84C9012E000BF00F0DEFAF068C568B8
:10178000281D00F09FFAA068401EA0606068401EFF
:10179000606000F0F1FA2846FFF7B7FF60680028A4
:1017A000EAD138680128F9D9C9F80080BFF34F8F12
:1017B000BFF36F8FF2E70000DC010020340000204F
:1017C00004ED00E02DE9F0470D46DDE909841746F8
:1017D000824691009946089EA522206BFEF793FD54
:1017E0006FF00301206B01EB8701084420F007072D
:1017F000780707D0502080F31188BFF34F8FBFF3D5
:101800006F8FFEE765B100202218295C82F8341042
:10181000295C11B1401C0A28F6D3002084F83D0051
:10182000052E07D3502080F31188BFF34F8FBFF3ED
:101830006F8FFEE7E662201DA66400F061FA04F1F6
:10184000180000F05DFA2461C6F105006462A06131
:101850004A465146384600F023FA2060B8F1000F9E
:1018600001D0C8F80040BDE8F087000030B511494C
:1018700000E011460A688242FBD34B685C18844240
:1018800003D1406818444860084643681C189442D5
:1018900009D1084C143C2468A24209D052681A4469
:1018A00042600A6812680260814200D0086030BD60
:1018B0000460F9E79C00002070B5002441600B4DE6
:1018C0000061914206D8D11A8269914206D2011D67
:1018D000286907E09A4203D2994201D3012403E028
:1018E000011DE86800F00FFA204670BD740000206A
:1018F00010B5044600F020FAA06B28B15FF0000498
:1019000000F03AFA204610BD0124F9E770B506460A
:101910000D480D46C068C068C468201D00F0D2F9AB
:1019200094F82800410705D52A463146204600F0A4
:10193000B5F803E000F0FE0084F828002046216A94
:10194000BDE8704008470000740000207FB5374EA6
:1019500063E00098002860DB029C606910B1201DE4
:1019600000F0B0F903A800F0BBF8054600980A287B
:1019700053D2DFE800F0520505282E460505282E33
:1019800094F828002A4640F0010084F828000199C4
:10199000A069019B01442046FFF78EFF40B394F8F5
:1019A0002800410707D50198A1692A46014420462D
:1019B00000F074F803E000F0FE0084F82800216ACB
:1019C0002046884729E014F8280F00F0FE00207018
:1019D00023E094F8280040F0010084F828000198E2
:1019E000A06130B141192B461A462046FFF764FF2B
:1019F00013E0502080F31188BFF34F8FBFF36F8F38
:101A0000FEE794F82800810703D4204600F0C8F9C7
:101A100003E000F0FE0084F82800002269463068E8
:101A200000F046FC002894D17FBD00007400002027
:101A3000F8B50D46064600F0EDFA684600F050F89D
:101A40000446009810B100F059FEF8BD1148ADB140
:101A500001690968D9B10025311B2A46006800F0E8
:101A60000BFA00F04BFE0028EFD10B494FF08050ED
:101A70000860BFF34F8FBFF36F8FF8BDA642EBD85E
:101A800000F03CFE21463046FFF740FFF8BD01253F
:101A9000E2E700007400002004ED00E070B5164697
:101AA0000C46054604E0A869296A0444284688478C
:101AB000A8692346011932462846FFF7FDFE002893
:101AC000F1D170BD0548816B096821B1816BC9688E
:101AD0000968816270474FF0FF31FAE73400002057
:101AE0002DE9F041064600F0F9FC0E4C0546A068D1
:101AF000854214D24FF0FF3704E0C06839460068D1
:101B0000FFF704FFE06801680029F6D12169C4E904
:101B10000310012030602846A560BDE8F081002058
:101B2000F8E700007400002008484068401C4FF0AF
:101B3000500080F3118804D0BFF34F8FBFF36F8F35
:101B4000FEE7BFF34F8FBFF36F8FFEE7A4000020C7
:101B5000074CE068016841B1C0680021D0F800007E
:101B6000FFF766FFFFF7F2FEF3E701210020F7E73A
:101B7000740000202DE9F041044600F0DDF894F9EE
:101B8000455004F1240609E0606A48B1304600F08F
:101B900047FD08B100F0C0F96D1E6DB2002DF3DCF9
:101BA0004FF0FF3684F8456000F0E6F800F0C4F826
:101BB00094F9445004F1100709E0206948B138460F
:101BC00000F02EFD08B100F0A7F96D1E6DB2002DDA
:101BD000F3DC84F84460BDE8F04100F0CDB80000CB
:101BE00070B50446002600F015FA2C4D286808B997
:101BF000FFF796FD7CB304F00700C0F11000C1436D
:101C00008C423DD8211800293ADD6868814237D8D6
:101C1000224814300246146801E0204614466268E7
:101C20008A4202D22268002AF7D12A68944227D039
:101C300006682268026060680836421A102A0FD9C6
:101C40006018430708D0502080F31188BFF34F8FEE
:101C5000BFF36F8FFEE713E042606160FFF706FE9F
:101C600061686868401A6860AA68904200D2A860FB
:101C700041F00040606000202060E868401CE8609F
:101C800000F03CFD700707D0502080F31188BFF3AF
:101C90004F8FBFF36F8FFEE7304670BD8800002086
:101CA00010B5031F4FF080741C601B1F21F0010151
:101CB0001960191F024B0B60143940380A6010BDBF
:101CC000291B0008D0E9013201699A60D0E901239B
:101CD0005A604A68824201D182684A6000220261E9
:101CE0000868401E08600868704700F108014FF05E
:101CF000FF32C0E90112C16001610021016070473B
:101D000000210161704730B50B685A1C02D000F108
:101D1000080202E0026904E02246546825689D42F8
:101D2000FAD953684B6099608A6051600861016814
:101D3000491C016030BD0000502080F31188BFF3C2
:101D40004F8FBFF36F8F0A494868401C48600128D5
:101D50000CD10848006810F0FF0F07D0502080F326
:101D60001188BFF34F8FBFF36F8FFEE770470000FE
:101D7000A400002004ED00E00849486828B1401E96
:101D8000486001D180F311887047502080F311889A
:101D9000BFF34F8FBFF36F8FFEE70000A40000205A
:101DA00070B500282AD0A0F108046068002807DB7D
:101DB000502080F31188BFF34F8FBFF36F8FFEE782
:101DC000216839B1502080F31188BFF34F8FBFF3E2
:101DD0006F8FFEE720F00040606000F01BF9084DB7
:101DE00060686968084468602046FFF73FFD28691D
:101DF000401C2861BDE8704000F080BC70BD000050
:101E0000880000204FF0E020002101618161054938
:101E10004FF47A720968B1FBF2F1491E4161072162
:101E2000016170470C00002070B5002260B10029EC
:101E30001ED0104C002300BF04EBC3056E68864221
:101E40000AD104EBC3020FE0502080F31188BFF3E6
:101E50004F8FBFF36F8FFEE71AB954F8336006B99E
:101E60002A465B1C082BE7D3002A01D0C2E90010E8
:101E700070BD0000FC00002070B515460E460446FB
:101E8000FFF75AFF94F944100020491C01D184F84F
:101E9000440094F94510491C01D184F84500FFF72E
:101EA0006BFFA06B28B92A46314604F1240000F0EC
:101EB00051F82046BDE87040FFF75CBE10B5020047
:101EC00014D00F48406B38B1502080F31188BFF315
:101ED0004F8FBFF36F8FFEE700F09CF80021104694
:101EE000FFF71CFB00F00AFC002807D105494FF062
:101EF00080500860BFF34F8FBFF36F8F10BD00009D
:101F00003400002004ED00E002490A6A0260C9685A
:101F1000416070473400002001490120C8617047CA
:101F20003400002010B50C4650B109490968183139
:101F3000FFF7E9FE2046BDE810400121FFF7EEBAA9
:101F4000502080F31188BFF34F8FBFF36F8FFEE7F0
:101F500034000020F0B40C46D0B1114943680D683C
:101F6000EB619D680E6835620D689E681835756076
:101F70000D6818359D60096888620168491C016018
:101F80000AB14FF0FF342046F0BC1146FFF7C6BA45
:101F9000502080F31188BFF34F8FBFF36F8FFEE7A0
:101FA000340000207CB517480025CDE900502B46B1
:101FB000822215A1164800F055FA124C2C3C01283B
:101FC00003D100F031FC012802D0401C11D00EE0FA
:101FD000502080F31188BFF34F8FBFF36F8F4FF006
:101FE000FF30A06201206061E56000F06FF8206BB7
:101FF0007CBD502080F31188BFF34F8FBFF36F8FEC
:10200000FEE700006000002049444C45000000004D
:10201000651700080248416B491C41637047000086
:10202000340000201448416B11B10121C161704797
:102030000021C1610169B1FA81F1C1F11F0101EB18
:1020400081020E4951F822306BB101EB820101F19E
:1020500008034A6852684A609A4201D152684A604D
:10206000D16801607047502080F31188BFF34F8F13
:10207000BFF36F8FFEE70000340000203C0100201A
:10208000FEF74CFF030004D02C2204A108A0FFF7A8
:1020900011F90A20FFF712FFF2E700004150505CEF
:1020A0004170705F6672656552544F532E63000035
:1020B0005B25733A25645D4B6579204576656E74C2
:1020C0003A2025640D0A0D0A000000001CB52649BF
:1020D00008780190FF20087008788DF800009DF8BE
:1020E00000009DF8002000F0F000904207D0502042
:1020F00080F31188BFF34F8FBFF36F8FFEE79DF81A
:1021000000001A4C00F0500020700720A06005E08D
:102110009DF8002052008DF80020401E9DF8002000
:102120001206F5D4A060032807D0502080F3118850
:10213000BFF34F8FBFF36F8FFEE74FF44070A06087
:10214000019808700A48016841F470010160016853
:1021500041F070410160FFF755FE00206060FEF71E
:1021600043F800201CBD000000E400E0A4000020B3
:1021700020ED00E010B5502080F31188BFF34F8FA1
:10218000BFF36F8F00F0B0F918B104494FF08050E1
:102190000860002080F3118810BD000004ED00E00D
:1021A0002DE9F04117460E46050020D04FF0FF30D4
:1021B000B0FBF5F0B0421AD305FB06F010F1510F59
:1021C00015D85030FFF70CFD04000CD004F150007E
:1021D0005EB12060C4E90F562046012100F010F8DE
:1021E000204684F84C70BDE8F0812460F2E750206E
:1021F00080F31188BFF34F8FBFF36F8FFEE70000AE
:102200002DE9F0410F4604004FF001062DD0E06BA0
:1022100098B3B51EB5FBF0F1206C81423ED3FFF7B9
:102220008BFDD4E90F20216802FB0011A160002181
:10223000A163216861600A46D4E90F01401E00FBDA
:1022400001212046E16000F8445F457004F1100070
:10225000A7B1FFF74AFD04F12400FFF746FD00BFD8
:10226000FFF78AFD3046BDE8F081502080F31188E9
:10227000BFF34F8FBFF36F8FFEE70FE02169002997
:10228000EED000F0CDF90028EAD008494FF0805098
:102290000860BFF34F8FBFF36F8FE1E7502080F3EB
:1022A0001188BFF34F8FBFF36F8FFEE704ED00E09F
:1022B0002DE9F747002683B08A46040003D0BAF11F
:1022C000000F08D011E0502080F31188BFF34F8F2A
:1022D000BFF36F8FFEE7206C38B1502080F3118878
:1022E000BFF34F8FBFF36F8FFEE700F0E9F8DFF821
:1022F000F4804FF000094FF0805748B9059838B185
:10230000502080F31188BFF34F8FBFF36F8FFEE72C
:10231000FFF712FDA56BC5B151462046FFF7E2F964
:102320006D1EA563206950B104F1100000F078F92A
:1023300028B1C8F80070BFF34F8FBFF36F8FFFF75E
:102340001BFD012006B0BDE8F087059808B11EB15D
:1023500006E0FFF711FD27E06846FFF7D5FD0126EF
:10236000FFF70AFDFFF756FEFFF7E6FC94F944007D
:10237000401C01D184F8449094F94500401C01D1DF
:1023800084F84590FFF7F8FC05A9684600F02CF8A2
:10239000002820460AD0FFF7EDFB00F0AFF92046F9
:1023A000FFF7A6FA0028B3D00020CBE7FFF7A0FA8A
:1023B00090B104F124000599FFF7B4FD2046FFF722
:1023C000D9FB00F09BF90028A2D1C8F80070BFF338
:1023D0004F8FBFF36F8F9BE72046FFF7CBFB00F0DB
:1023E0008DF995E704ED00E02DE9F0410C4605007C
:1023F00014D0DCB1FFF7A0FC194EF2686B682068BE
:10240000D11A471C1AD02F68D6F820C0002667457D
:1024100016D0934214D8012526601BE0502080F38B
:102420001188BFF34F8FBFF36F8FFEE7502080F30B
:102430001188BFF34F8FBFF36F8FFEE7002509E0D0
:10244000884205D9401A20602846FFF75DFDF5E770
:1024500001252660FFF790FC2846BDE8F0810000CA
:10246000340000202DE9FF5F8346DDE90E879946A1
:1024700016468A469000FFF7B3FB05001DD0582092
:10248000FFF7AEFB040015D05821FDF743FF25638D
:102490000021CDE90241CDE900874B463246514645
:1024A0005846FFF78FF92046FFF77CF8012004B06B
:1024B000BDE8F09F2846FFF773FC4FF0FF30F6E7CA
:1024C0000548416919B1406B18B1002070470120DF
:1024D0007047022070470000340000200148C068A7
:1024E00070470000340000202DE9F0414A4C0026DE
:1024F000606B28B1A069401CA0613046BDE8F08146
:10250000E5686D1CE56013D1A06B006838B1502000
:1025100080F31188BFF34F8FBFF36F8FFEE7A06B7F
:10252000E16BA163E063206A401C2062FFF7CAFAF6
:10253000A16A3A488D420FD34FF0000EA16B096893
:1025400039B1A16BC968C9684A68954212D2A262C2
:1025500002E04FF0FF31A1622168C96A01EB8101FD
:1025600050F82100012800D90126E0690028C4D0D4
:102570000126C2E7D1E902724B69BA60D1E90227AC
:102580007A605F680A1D974201D1CF685F60C1F829
:1025900014E01F687F1E1F60D1F828C0BCF1000F37
:1025A00015D0D1E907379F60D1E907377B60DCF8A8
:1025B000047001F118039F4202D10B6ACCF8043079
:1025C000C1F828E0DCF800305B1ECCF80030CB6AA4
:1025D0000127D4F810C09F4047EA0C07276103EB9E
:1025E000830300EB83035B688B609F68CF609F6809
:1025F0007A609A60CA6A02EB820200EB82034B6146
:1026000050F822305B1C40F82230C96A2268D26A36
:10261000914293D9012691E7340000203C0100202B
:1026200070B5C068C06850B3D0E90732816A9A605B
:10263000D0E907235A604A6800F118039A4201D191
:10264000026A4A60002585620A68521E0A602949AA
:102650004A6B0124DAB1284D6A68C2619668066245
:1026600096687360936085622A68521C2A60C06A0B
:102670000A68D26A90423AD90120CC6170BD5020DC
:1026800080F31188BFF34F8FBFF36F8FFEE7D0E960
:1026900002634269B360D0E9023673605668031D75
:1026A0009E4201D1C6685660456115686D1E156071
:1026B000C26A0E6904FA02F535430D610E4D02EB54
:1026C00082028C3D05EB8202526882609668C66089
:1026D000966873609360C26A02EB820205EB820324
:1026E000436155F822305B1C45F82230BFE70020DB
:1026F00070BD000034000020C80100202DE9F04129
:10270000464D00242746686B38B1FFF715FB686B10
:10271000401E6863686B40B17AE0502080F31188F6
:10272000BFF34F8FBFF36F8FFEE7A8683C4B0026C7
:102730004FF00108F0BB6BE0D868C468D4E907210A
:10274000A06A9160D4E907125160426804F118014F
:102750008A4201D1216A4160A6620168491E016076
:10276000D4E9022160699160D4E9021251604268A3
:10277000211D8A4201D1E268426066610268521EF0
:102780000260E26AD5F810C008FA02F040EA0C00D4
:10279000286102EB8200224A8C3A02EB80004068FA
:1027A000A060D0F808C0C4F80CC0D0F808C0CCF8BD
:1027B000041000E012E08160E06A00EB800002EBB0
:1027C0008001616152F82010491C42F82010E06A33
:1027D0002968C96A884201D3C5F81C801868002896
:1027E000AAD10CB1FFF76EF9AC693CB1FFF77CFEE2
:1027F00008B1C5F81C80641EF8D1AE61E86938B133
:102800000849012738070860BFF34F8FBFF36F8F68
:10281000FFF7B2FA3846BDE8F0810000340000202E
:10282000C801002004ED00E01CB5FEF733FF0D48A1
:10283000006868B10B490220091DCDE900010023A1
:102840004FF4827208A10A48FFF70CFE002807D156
:10285000502080F31188BFF34F8FBFF36F8FFEE7D7
:102860001CBD000074000020546D7220537663007C
:10287000511B0008000000000000000001020304DA
:10288000060708090000000001020304AC28000844
:1028900000000020B4000000F412000860290008C5
:1028A000B40000207C310100041300080100000086
:1028B00010000000000000000024F400001C024092
:1028C0000800000001000000001C0240040000009D
:1028D0000200000000080240002000000300000089
:1028E00000000000000000000000000000000000E8
:1028F00000000000000000000000000000000000D8
:1029000000000000000000000000000000000000C7
:1029100004000000000000000000000000000000B3
:1029200000000000000000000000000000000000A7
:102930000000000000000000000000000000000097
:102940000000000000000000000000000000000087
:1029500000000000AAAAAAAA0000000000000000CF
:04000005080001AD41
:00000001FF
