:020000040800F2
:10000000680500205D020008570F0008710E000807
:10001000550F000895030008EB11000800000000D0
:10002000000000000000000000000000C501000802
:10003000970300080000000009020008590F00089B
:1000400077020008770200087702000877020008AC
:10005000770200087702000877020008770200089C
:10006000770200087702000877020008770200088C
:10007000770200087702000877020008770200087C
:10008000770200087702000877020008770200086C
:10009000770200087702000877020008770200085C
:1000A000770200087702000877020008770200084C
:1000B000770200087702000877020008770200083C
:1000C000770200087702000877020008770200082C
:1000D000770200087702000877020008770200081C
:1000E000770200087702000877020008770200080C
:1000F00077020008770200087702000877020008FC
:1001000077020008770200087702000877020008EB
:1001100077020008770200087702000877020008DB
:1001200077020008770200087702000877020008CB
:1001300077020008770200087702000877020008BB
:1001400077020008770200087702000877020008AB
:10015000770200087702000877020008770200089B
:10016000770200087702000877020008770200088B
:1001700077020008770200087702000800000000FC
:10018000770200087702000877020008770200086B
:10019000770200087702000877020008770200085B
:1001A000770200087702000877020008DFF810D015
:1001B00000F0DEF8004800471D140008AFF300808F
:1001C00068050020224B19680868B0E8F00F80F33A
:1001D0000988BFF36F8F4FF0000080F311884EF055
:1001E0000D0E70470000000006480068006880F3AC
:1001F000088862B661B6BFF34F8FBFF36F8F00DF21
:1002000000BF00BF08ED00E0EFF30980BFF36F8F80
:100210000F4B1A6820E9F00F106008B54FF050003E
:1002200080F31188BFF34F8FBFF36F8F01F02EF96A
:100230004FF0000080F31188BDE808401968086895
:10024000B0E8F00F80F30988BFF36F8F704700BFED
:1002500010000020EFF3058070470000064880473B
:1002600006480047FEE7FEE7FEE7FEE7FEE7FEE79B
:10027000FEE7FEE7FEE7FEE70D100008AD0100080F
:100280002DE9F05F0546002092469B4688460646CB
:10029000814640241BE0284641464746224600F05E
:1002A00057F853465A46C01A914110D31146184682
:1002B000224600F03EF82D1A67EB01084F46224611
:1002C0000120002100F035F817EB00094E41201EF7
:1002D000A4F10104DFDC484631462A464346BDE826
:1002E000F09FD2B201E000F8012B491EFBD270470B
:1002F0000022F6E710B513460A4604461946FFF7F2
:10030000F0FF204610BD30B50B46014600202022EC
:10031000012409E021FA02F59D4205D303FA02F512
:10032000491B04FA02F52844151EA2F10102F1DC72
:1003300030BD202A04DB203A00FA02F10020704789
:100340009140C2F1200320FA03F319439040704713
:10035000202A04DB203A21FA02F00021704721FA1A
:1003600002F3D040C2F12002914008431946704781
:10037000064C074D06E0E06840F0010394E80700F2
:1003800098471034AC42F6D3FFF714FF80160008EC
:10039000A0160008FEE7704772B6FEE770B5044687
:1003A00000F02EF90546601C02D004480078044491
:1003B00000F026F9401BA042FAD370BD00000020D7
:1003C0002DE9F84FDFF8F8A10022012403254FF0B2
:1003D0000F090AF1040BAAF1040E00BF0B6804FA1E
:1003E00002F63340B34270D10F7907F00307012FB3
:1003F00001D0022F16D187684FEA420805FA08FC9F
:1004000027EA0C07D1F80CC00CFA08FC4CEA070CE0
:10041000C0F808C04768B7430E79C6F30016964087
:100420003E4346600E79F643B6070AD0C7684FEAE6
:10043000420C05FA0CF6B7438E6806FA0CF63E43FA
:10044000C6600E7906F00306022E10D1D60800EB26
:100450008608D8F8206057074FEAD76C09FA0CF7DE
:10046000BE430F6907FA0CF73743C8F820700668D7
:100470004FEA420C05FA0CF7BE430F7907F0030769
:1004800007FA0CF7374307604E6816F4403F1CD05C
:100490004C4E376847F480473760366822F00307D0
:1004A00006F480460096484E07EB060CDCF8086818
:1004B00097073F0F09FA07F826EA0806DFF80C81CC
:1004C000404503D14FF0000841E072E0DFF80081C1
:1004D000404502D14FF0010839E0DFF8F88040458F
:1004E00002D14FF0020832E0DFF8EC80404502D143
:1004F0004FF003082BE0DFF8E480404502D14FF0D5
:10050000040824E0DFF8D880404502D14FF0050808
:100510001DE0DFF8D080404502D14FF0060816E01C
:10052000DFF8C480404502D14FF007080FE0DFF844
:10053000BC80404502D14FF0080808E0DFF8B080E9
:10054000404502D14FF0090801E04FF00A0808FACF
:1005500007F848EA0608CCF80888DAF80060574639
:10056000D1F804C09E435FEACC2C00D51E433E6008
:10057000DBF800605F46D1F804C09E435FEA8C2C34
:1005800000D51E433E60DEF800607746D1F804C017
:100590009E435FEA8C3C00D51E433E60084F083FF7
:1005A0003E68D1F804C09E435FEACC3C00D51E43B0
:1005B0003E60521C102AFFF411AFBDE8F88F000016
:1005C000083C014044380240003001400000024035
:1005D0000004024000080240000C024000100240EB
:1005E0000014024000180240001C0240002002409B
:1005F000002402400AB1816170470904FBE7000052
:1006000001488068704700000000002002488168AF
:100610000278114481607047000000200B4810B53B
:10062000016841F400710160016841F4806101607A
:10063000016841F480710160032000F061F80F202F
:1006400000F006F800F024F8002010BD003C024045
:1006500070B50D4D04464FF47A712878B1FBF0F077
:100660000A490968B1FBF0F000F036FB48B9102CDC
:1006700007D200222146501E00F022F800206C60B4
:1006800070BD012070BD0000000000200C000020A3
:100690000A4808B5016841F480410160006800F42F
:1006A000804000900548001F016841F080510160C2
:1006B000006800F08050009008BD000044380240FF
:1006C000F0B40E4B1B680C46C3F30223C3F10705BD
:1006D000042D00D90425191D072901D2002300E0AB
:1006E000DB1E012606FA05F1491E214099409E4075
:1006F000761E16403143F0BC00F088BD0CED00E0E2
:10070000064900F0070208684FF6FF03184040EA68
:100710000220034A10430860704700000CED00E01F
:100720000000FA052DE9F8431748016841F08051AF
:1007300001600068154F00F08050012600903E6473
:10074000FFF75EFF05464FF47A78114C05E000BFD5
:10075000FFF756FF401B40450DD86068C003F7D532
:100760007E64FFF74DFF0546464607E0FFF748FF6A
:10077000401BB04202D90320BDE8F88360688003C3
:10078000F4D50020F8E700004038024000000E4297
:10079000007000402DE9F0470E46050065D0DFF8F7
:1007A0001481D8F80000F7B200F00F00B04207D271
:1007B00088F80070D8F8000000F00F00B04254D163
:1007C00028683D4C810712D5400703D5206840F4C6
:1007D000E05020602878000703D5206840F460408E
:1007E00020602068A96820F0F00008432060287885
:1007F000C0072DD0304968680839012812D0022876
:1008000013D0032811D00968890700292DDA21683F
:1008100021F0030101432160FFF7F2FE814641F21E
:10082000883A0EE009688903EFE709688901ECE777
:10083000FFF7E6FEA0EB0901514502D90320BDE810
:10084000F0872068696800F00C00B0EB810FEFD1F1
:10085000D8F80010404601F00F01B14207D90770E7
:10086000006800F00F00B04201D00120E7E72878CF
:10087000400705D52068E96820F4E050084320606F
:100880002878000706D52068296920F4604040EAEE
:10089000C100206000F038F82168084AC1F3031154
:1008A000515CC8400649086006480068FFF7D0FE62
:1008B0000020C4E7003C02400838024068160008E7
:1008C0000C00002004000020044805490068096865
:1008D000044AC1F38221515CC84070470C000020DB
:1008E000083802407816000804480549006809687D
:1008F000044AC1F34231515CC84070470C000020EB
:100900000838024078160008154810B5006810F045
:100910000C02144813D01449042A0FD0082A0ED10F
:100920000F4C241F2268236802F03F025B0207D5A8
:100930002068C0F38810A0FB010106E0084610BD46
:100940002168C1F38811A1FB00010023FFF798FC87
:100950002168C1F30141491C4900B0FBF1F010BD11
:10096000083802400024F40040787D012DE9F84F5A
:1009700004006ED02078DFF84C93C007A9F104057D
:100980004AD009F104000168C1F38101012908D0AE
:100990000068C0F3810002280AD1D9F800004002A3
:1009A00006D52868800337D560680028E1D033E099
:1009B0006068B0F5803F10D0B0F5A02F286810D047
:1009C00020F480302860286820F480202860606847
:1009D000A8B1FFF715FE06460DE0286840F4803008
:1009E000F4E740F480202860F7E700BFFFF708FE37
:1009F000801B642873D828688003F7D50CE0FFF7C4
:100A0000FFFD064605E000BFFFF7FAFD801B6428E6
:100A1000F0D828688003F7D42078DFF8AC8280070C
:100A20004FF0000A3ED5A748001D016811F00C0FD9
:100A300008D00068C0F3810002280BD1D9F800006B
:100A4000400207D42868800716D5E068012800D145
:100A500012E033E1E068B8B10120C8F80000FFF708
:100A6000CFFD064605E000BFFFF7CAFD801B022848
:100A7000C0D828688007F7D52868216920F0F800D9
:100A800040EAC10028600DE0C8F800A0FFF7B8FDFB
:100A9000064604E0FFF7B4FD801B02281FD8286833
:100AA0008007F7D42078000722D5864F87486169F0
:100AB000703771B101210160FFF7A2FD064604E025
:100AC000FFF79EFD801B022809D838688007F7D5FC
:100AD0000EE0C0F800A0FFF793FD064605E082E0B7
:100AE000FFF78EFD801B02287DD838688007F7D479
:100AF0002078400768D5DFF8CCB100270BF13C0B1C
:100B0000DBF80000C0000BD4DBF8001041F080518E
:100B1000CBF80010DBF80000012700F080500090B7
:100B20006B4E3068C00510D4306840F4807030607F
:100B3000FFF766FD009005E0FFF762FD0099401A9F
:100B4000022850D83068C005F6D55E4EA0686C36D5
:100B500001280FD00528306810D020F00100306047
:100B6000306820F004003060A068B8B1FFF748FD9D
:100B700000900FE0306840F00100F4E740F004001E
:100B80003060F7E7FFF73CFD0099411A41F28830E9
:100B9000814266D830688007F4D50EE0FFF730FD5B
:100BA000009007E0FFF72CFD0099411A41F28830D0
:100BB000814256D830688007F4D42FB1DBF800109A
:100BC00021F08051CBF80010A069C8B33D49091D40
:100BD0000968C1F3810102294AD00228504607D092
:100BE000C8F8600000E03CE0FFF70AFD04463BE087
:100BF0004746C8F86000FFF703FD064605E000BF62
:100C0000FFF7FEFC801B02282BD828688001F7D450
:100C1000D4E907010843A16A2E4A490802EB0141C1
:100C2000626A41EA8211084394F82C1040EA01619B
:100C3000C9F8001001203866FFF7E2FC044606E020
:100C40003EE000BFFFF7DCFC001B022809D8286843
:100C50008001F7D534E000BFFFF7D2FC001B02286B
:100C600002D90320BDE8F88F28688001F4D427E07A
:100C70000128F7D0D9F80000E26900F48001914220
:100C80001CD1226A00F03F01914217D147F6C07192
:100C9000626A0140B1EB821F10D1A26A4FF0FF33AC
:100CA00000F4403103EB5202B1EB024F06D194F84D
:100CB0002C1000F07060B0EB016F01D00120D1E783
:100CC0000020CFE70438024000004742800E474230
:100CD000007000400000FFFF10B5401EB0F1807FA3
:100CE00001D3012010BD4FF0E02460610F21601797
:100CF00000F08CFA0020A06107202061002010BDC8
:100D000070B5040004D094F84100002510B106E04D
:100D1000012070BD84F84050204600F023F82420C4
:100D200084F841002068C16821F40051C160204668
:100D300000F09CF92068016921F49041016120686C
:100D4000416921F02A0141612068C16841F40051E4
:100D5000C1606564202084F8410084F84200656326
:100D6000002070BD10B586B0044614216846FFF718
:100D7000BFFA14492068884221D113480021026833
:100D800042F010020260006800F0100005900E486A
:100D90001438026842F001020260006800F00100AD
:100DA00005904FF4C06000900220CDE901010320BE
:100DB00003900720049069460448FFF701FB06B042
:100DC00010BD000000100140443802400000024005
:100DD0002DE9F843044690F84100984616460D4622
:100DE000202802D00220BDE8F88385B17EB1002022
:100DF0006064212084F84100FFF702FCA68481464C
:100E0000E684A0682027B0F5805F02D003E00120CF
:100E1000E9E7206910B12E4600250EE000260CE01F
:100E20008021204600F0A8F9A8B9C6B116F8010B38
:100E300021684860E08C401EE084E08C4B464FF017
:100E40000002CDF800800028EAD14FF04001204692
:100E500000F092F940B184F841700320C3E735F8FF
:100E6000020BC0F30800E3E784F841700020BAE702
:100E7000FEE7000070B586B014216846FFF738FA27
:100E800022480025016841F004010160016801F079
:100E900004010591016841F080010160016801F0E1
:100EA00080010591016841F002010160016801F0D3
:100EB00002010591016841F0010101600068144ED2
:100EC00000F001000590012203213046FFF792FB5C
:100ED0004FF40050CDE900050124694602940D4805
:100EE000FFF76EFA0C20CDE90005694602940A4826
:100EF000FFF766FA0320CDE9000469463046CDE9E4
:100F00000245FFF75DFA06B070BD000030380240C0
:100F10000004024000080240001C02400C4810B5CA
:100F20000A4901604FF4E1314160002181600C22E7
:100F3000C160C0E904128161C161FFF7E1FE0028D0
:100F400003D0BDE81040FFF727BA10BD00100140E4
:100F500054000020FEE7FEE710B500F0DBFA0128A0
:100F600001D000F0C1FABDE81040FFF74FBB000010
:100F700070B592B030216846FFF7BAF914210CA879
:100F8000FFF7B6F91F480025016841F08051016064
:100F9000006800F0805011901B48016841F4404106
:100FA00001600068022400F440401190012000908C
:100FB000000401908001CDE906400F260896D82054
:100FC000CDE9090404200B906846FFF7CFFC08B177
:100FD00072B6FEE7FFF7A6FB08B172B6FEE74FF464
:100FE000A050CDE90E504FF48050CDE90C64109024
:100FF00005210CA8FFF7CEFB002801D072B6FEE752
:1010000012B070BD403802400070004002480168D4
:1010100041F470010160704788ED00E001680C3117
:1010200051E8002F22F4907241E80023002BF5D103
:101030000168143151E8002F22F0010241E8002339
:10104000002BF5D1016B012909D101680C3151E860
:10105000002F22F0100241E80023002BF5D12021BF
:1010600080F84210002101637047000070B504460B
:1010700000680169E26821F440511143016121696E
:10108000A068E26908436169114308432168CA689E
:1010900049F20C639A430243CA6020684169A2691D
:1010A00021F440711143416131492068884202D0E6
:1010B0003049884202D1FFF717FC01E0FFF704FC3A
:1010C000E2690023192164253226B2F5004F6268D7
:1010D00028D0A0FB0101930F9200FFF7D1F8014641
:1010E000B0FBF5F06FF01802504301EB800006EB07
:1010F0000010B0FBF5F000F0F002B1FBF5F002EBF0
:101100000012B1FBF5F06FF01803584301EB8000BB
:1011100006EB0010B0FBF5F000F00F002168104462
:10112000886070BDA0FB010192185B41FFF7A8F831
:101130000146B0FBF5F00201B1FBF5F06FF01803CA
:10114000584301EB800006EBC000B0FBF5F000F067
:10115000F80002EB4002B1FBF5F0584301EB8000D0
:1011600006EBC000B0FBF5F000F00700D6E700008A
:1011700000100140001401402DE9F843984617463D
:101180000D460446089E24E0701C22D0FFF738FA72
:10119000A0EB0800B0421AD8CEB12068C168490758
:1011A00017D5802D15D0402D13D00168C9430907EC
:1011B0000FD401680025406800902046FFF72EFFFD
:1011C0000820606484F840500120BDE8F8830320C3
:1011D000FBE72068006835EA000004D00020B84230
:1011E000D2D00020F1E70120F9E7FEE70FB4054B6C
:1011F00010B503A9044A029800F028F810BC5DF865
:1012000014FB000005140008500000200907090E17
:10121000002804DB00F1E02080F80014704700F0A3
:101220000F0000F1E02080F8141D704702E008C8AC
:10123000121F08C1002AFAD170477047002001E050
:1012400001C1121F002AFBD1704700002DE9FF4F9A
:101250008BB09A460F460546002606E025280BD09F
:1012600052460D9990476D1C761C28780028F5D1C0
:101270000FB03046BDE8F08F0024A046012260493F
:1012800000E0044315F8013F203B02FA03F0084256
:10129000F7D128782E2817D115F8010F44F004044F
:1012A0002A280ED06FF02F022878A0F130010929EA
:1012B0000AD808EB880102EB410100EB01086D1C24
:1012C000F2E757F8048B6D1C287869283ED006DCBD
:1012D0000028CDD063280BD0642804D136E07328D1
:1012E00010D075284BD052460D999047761C85E05A
:1012F00017F8040B8DF8000000208DF80100E94676
:10130000012003E057F8049B4FF0FF3061074FF0D6
:10131000000401D40AE0641C44450DDA8442FADB7F
:1013200019F804100029F6D106E0641C8442FCDBA5
:1013300019F804100029F8D1264404E019F8010B2B
:1013400052460D999047641EF8D257E001CF4FF0F6
:101350000A0B002802DA40422D2102E0210504D5C3
:101360002B218DF82410012103E0E10705D0202175
:10137000F7E70DF1200908910CE00021F9E701CF12
:101380004FF00A0BF9E75946FEF7BDFF01F13002B5
:1013900009F8012D0028F6D1ADEB090000F1200B72
:1013A000600701D44FF00108D84502DDA8EB0B001F
:1013B00000E000208046002406E009A85246005DB7
:1013C0000D999047641C761C08988442F5DB04E074
:1013D000302052460D999047761CB8F10001A8F1D3
:1013E0000108F5DC05E019F8010B52460D9990470C
:1013F000761CBBF10001ABF1010BF4DC6D1C34E792
:101400000928010013B54FF0FF3301226946024855
:10141000FFF7DEFC00981CBD54000020FFF7FEF82B
:10142000FFF7A6FDFFF726FDFFF778FD4FF47A746E
:10143000632204A108A0FFF7D9FE2046FEF7AEFF05
:10144000F6E700002E2E2F436F72652F5372632F25
:101450006D61696E2E6300005B25733A25645D48FB
:10146000656C6C6F20576F726C64210D0A00000070
:101470000548816B096821B1816BC968096881627F
:1014800070474FF0FF31FAE7100000201448416B1D
:1014900011B10121C16170470021C1610169B1FA37
:1014A00081F1C1F11F0101EB81020E4951F8223097
:1014B0006BB101EB820101F108034A6852684A608E
:1014C0009A4201D152684A60D16801607047502049
:1014D00080F31188BFF34F8FBFF36F8FFEE70000DB
:1014E000100000209C00002010B5502080F31188CF
:1014F000BFF34F8FBFF36F8F00F01AF818B1044994
:101500004FF080500860002080F3118810BD00006B
:1015100004ED00E00548416919B1406B18B10020A5
:101520007047012070470220704700001000002023
:101530002DE9F0414A4C0026606B28B1A069401C9F
:10154000A0613046BDE8F081E5686D1CE56013D10F
:10155000A06B006838B1502080F31188BFF34F8F23
:10156000BFF36F8FFEE7A06BE16BA163E063206ABE
:10157000401C2062FFF77CFFA16A3A488D420FD3DE
:101580004FF0000EA16B096839B1A16BC968C96839
:101590004A68954212D2A26202E04FF0FF31A16286
:1015A0002168C96A01EB810150F82100012800D9A6
:1015B0000126E0690028C4D00126C2E7D1E9027201
:1015C0004B69BA60D1E902277A605F680A1D9742C9
:1015D00001D1CF685F60C1F814E01F687F1E1F60F3
:1015E000D1F828C0BCF1000F15D0D1E907379F60B2
:1015F000D1E907377B60DCF8047001F118039F42E2
:1016000002D10B6ACCF80430C1F828E0DCF80030D5
:101610005B1ECCF80030CB6A0127D4F810C09F4085
:1016200047EA0C07276103EB830300EB83035B6846
:101630008B609F68CF609F687A609A60CA6A02EB8D
:10164000820200EB82034B6150F822305B1C40F8B1
:101650002230C96A2268D26A914293D9012691E761
:10166000100000209C00002000000000000000008E
:101670000102030406070809000000000102030438
:10168000A016000800000020540000002C120008E2
:10169000F416000854000020140500003C12000855
:1016A0000100000010000000000000000024F40011
:1016B000000000000000000000000000000000002A
:1016C000000000000000000000000000000000001A
:1016D000000000000000000000000000000000000A
:1016E00004000000000000000000000000000000F6
:0416F00000000000F6
:04000005080001AD41
:00000001FF
